{
  "_format": "hh-sol-artifact-1",
  "contractName": "Voting",
  "sourceName": "contracts/voting.sol",
  "abi": [
    {
      "inputs": [
        {
          "internalType": "address[20]",
          "name": "_voterAddresses",
          "type": "address[20]"
        },
        {
          "internalType": "string[20]",
          "name": "_voterNames",
          "type": "string[20]"
        }
      ],
      "stateMutability": "nonpayable",
      "type": "constructor"
    },
    {
      "anonymous": false,
      "inputs": [
        {
          "indexed": true,
          "internalType": "address",
          "name": "voter",
          "type": "address"
        },
        {
          "indexed": true,
          "internalType": "uint256",
          "name": "candidateIndex",
          "type": "uint256"
        }
      ],
      "name": "Voted",
      "type": "event"
    },
    {
      "inputs": [
        {
          "internalType": "bytes32",
          "name": "_bytes32",
          "type": "bytes32"
        }
      ],
      "name": "bytes32ToString",
      "outputs": [
        {
          "internalType": "string",
          "name": "",
          "type": "string"
        }
      ],
      "stateMutability": "pure",
      "type": "function"
    },
    {
      "inputs": [
        {
          "internalType": "uint256",
          "name": "",
          "type": "uint256"
        }
      ],
      "name": "candidates",
      "outputs": [
        {
          "internalType": "bytes32",
          "name": "name",
          "type": "bytes32"
        },
        {
          "internalType": "uint256",
          "name": "voteCount",
          "type": "uint256"
        }
      ],
      "stateMutability": "view",
      "type": "function"
    },
    {
      "inputs": [
        {
          "internalType": "uint256",
          "name": "index",
          "type": "uint256"
        }
      ],
      "name": "getCandidate",
      "outputs": [
        {
          "internalType": "string",
          "name": "",
          "type": "string"
        },
        {
          "internalType": "uint256",
          "name": "",
          "type": "uint256"
        }
      ],
      "stateMutability": "view",
      "type": "function"
    },
    {
      "inputs": [
        {
          "internalType": "address",
          "name": "voterAddress",
          "type": "address"
        }
      ],
      "name": "getVoterStatus",
      "outputs": [
        {
          "internalType": "string",
          "name": "",
          "type": "string"
        },
        {
          "internalType": "bool",
          "name": "",
          "type": "bool"
        }
      ],
      "stateMutability": "view",
      "type": "function"
    },
    {
      "inputs": [],
      "name": "getWinner",
      "outputs": [
        {
          "internalType": "string",
          "name": "winnerName",
          "type": "string"
        },
        {
          "internalType": "uint256",
          "name": "winnerVotes",
          "type": "uint256"
        }
      ],
      "stateMutability": "view",
      "type": "function"
    },
    {
      "inputs": [],
      "name": "owner",
      "outputs": [
        {
          "internalType": "address",
          "name": "",
          "type": "address"
        }
      ],
      "stateMutability": "view",
      "type": "function"
    },
    {
      "inputs": [],
      "name": "totalVotes",
      "outputs": [
        {
          "internalType": "uint256",
          "name": "",
          "type": "uint256"
        }
      ],
      "stateMutability": "view",
      "type": "function"
    },
    {
      "inputs": [
        {
          "internalType": "uint256",
          "name": "candidateIndex",
          "type": "uint256"
        }
      ],
      "name": "vote",
      "outputs": [],
      "stateMutability": "nonpayable",
      "type": "function"
    },
    {
      "inputs": [
        {
          "internalType": "address",
          "name": "",
          "type": "address"
        }
      ],
      "name": "voters",
      "outputs": [
        {
          "internalType": "string",
          "name": "name",
          "type": "string"
        },
        {
          "internalType": "bool",
          "name": "hasVoted",
          "type": "bool"
        }
      ],
      "stateMutability": "view",
      "type": "function"
    }
  ],
  "bytecode": "0x60a060405234801561001057600080fd5b506040516118c33803806118c383398181016040528101906100329190610620565b3373ffffffffffffffffffffffffffffffffffffffff1660808173ffffffffffffffffffffffffffffffffffffffff168152505060405180604001604052807f416c6963650000000000000000000000000000000000000000000000000000008152602001600081525060016000808152602001908152602001600020600082015181600001556020820151816001015590505060405180604001604052807f426f620000000000000000000000000000000000000000000000000000000000815260200160008152506001600060018152602001908152602001600020600082015181600001556020820151816001015590505060405180604001604052807f436861726c696500000000000000000000000000000000000000000000000000815260200160008152506001600060028152602001908152602001600020600082015181600001556020820151816001015590505060405180604001604052807f4461766964000000000000000000000000000000000000000000000000000000815260200160008152506001600060038152602001908152602001600020600082015181600001556020820151816001015590505060005b60148110156102c05760405180604001604052808383601481106102135761021261067e565b5b60200201518152602001600015158152506002600085846014811061023b5761023a61067e565b5b602002015173ffffffffffffffffffffffffffffffffffffffff1673ffffffffffffffffffffffffffffffffffffffff168152602001908152602001600020600082015181600001908161028f91906108ce565b5060208201518160010160006101000a81548160ff02191690831515021790555090505080806001019150506101ec565b5050506109a0565b6000604051905090565b600080fd5b600080fd5b600080fd5b6000601f19601f8301169050919050565b7f4e487b7100000000000000000000000000000000000000000000000000000000600052604160045260246000fd5b61032a826102e1565b810181811067ffffffffffffffff82111715610349576103486102f2565b5b80604052505050565b600061035c6102c8565b90506103688282610321565b919050565b600067ffffffffffffffff821115610388576103876102f2565b5b602082029050919050565b600080fd5b600073ffffffffffffffffffffffffffffffffffffffff82169050919050565b60006103c382610398565b9050919050565b6103d3816103b8565b81146103de57600080fd5b50565b6000815190506103f0816103ca565b92915050565b60006104096104048461036d565b610352565b9050806020840283018581111561042357610422610393565b5b835b8181101561044c578061043888826103e1565b845260208401935050602081019050610425565b5050509392505050565b600082601f83011261046b5761046a6102dc565b5b60146104788482856103f6565b91505092915050565b600067ffffffffffffffff82111561049c5761049b6102f2565b5b602082029050919050565b600080fd5b600067ffffffffffffffff8211156104c7576104c66102f2565b5b6104d0826102e1565b9050602081019050919050565b60005b838110156104fb5780820151818401526020810190506104e0565b60008484015250505050565b600061051a610515846104ac565b610352565b905082815260208101848484011115610536576105356104a7565b5b6105418482856104dd565b509392505050565b600082601f83011261055e5761055d6102dc565b5b815161056e848260208601610507565b91505092915050565b600061058a61058584610481565b610352565b905080602084028301858111156105a4576105a3610393565b5b835b818110156105eb57805167ffffffffffffffff8111156105c9576105c86102dc565b5b8086016105d68982610549565b855260208501945050506020810190506105a6565b5050509392505050565b600082601f83011261060a576106096102dc565b5b6014610617848285610577565b91505092915050565b6000806102a08385031215610638576106376102d2565b5b600061064685828601610456565b92505061028083015167ffffffffffffffff811115610668576106676102d7565b5b610674858286016105f5565b9150509250929050565b7f4e487b7100000000000000000000000000000000000000000000000000000000600052603260045260246000fd5b600081519050919050565b7f4e487b7100000000000000000000000000000000000000000000000000000000600052602260045260246000fd5b600060028204905060018216806106ff57607f821691505b602082108103610712576107116106b8565b5b50919050565b60008190508160005260206000209050919050565b60006020601f8301049050919050565b600082821b905092915050565b60006008830261077a7fffffffffffffffffffffffffffffffffffffffffffffffffffffffffffffffff8261073d565b610784868361073d565b95508019841693508086168417925050509392505050565b6000819050919050565b6000819050919050565b60006107cb6107c66107c18461079c565b6107a6565b61079c565b9050919050565b6000819050919050565b6107e5836107b0565b6107f96107f1826107d2565b84845461074a565b825550505050565b600090565b61080e610801565b6108198184846107dc565b505050565b5b8181101561083d57610832600082610806565b60018101905061081f565b5050565b601f8211156108825761085381610718565b61085c8461072d565b8101602085101561086b578190505b61087f6108778561072d565b83018261081e565b50505b505050565b600082821c905092915050565b60006108a560001984600802610887565b1980831691505092915050565b60006108be8383610894565b9150826002028217905092915050565b6108d7826106ad565b67ffffffffffffffff8111156108f0576108ef6102f2565b5b6108fa82546106e7565b610905828285610841565b600060209050601f8311600181146109385760008415610926578287015190505b61093085826108b2565b865550610998565b601f19841661094686610718565b60005b8281101561096e57848901518255600182019150602085019450602081019050610949565b8683101561098b5784890151610987601f891682610894565b8355505b6001600288020188555050505b505050505050565b608051610f086109bb60003960006106ad0152610f086000f3fe608060405234801561001057600080fd5b50600436106100935760003560e01c806378e3ef201161006657806378e3ef20146101345780638da5cb5b146101655780638e7ea5b2146101835780639201de55146101a2578063a3ec138d146101d257610093565b80630121b93f146100985780630d15fd77146100b45780633477ee2e146100d257806335b8e82014610103575b600080fd5b6100b260048036038101906100ad9190610997565b610203565b005b6100bc610440565b6040516100c991906109d3565b60405180910390f35b6100ec60048036038101906100e79190610997565b610446565b6040516100fa929190610a07565b60405180910390f35b61011d60048036038101906101189190610997565b61046a565b60405161012b929190610ac0565b60405180910390f35b61014e60048036038101906101499190610b4e565b6104f0565b60405161015c929190610b96565b60405180910390f35b61016d6106ab565b60405161017a9190610bd5565b60405180910390f35b61018b6106cf565b604051610199929190610ac0565b60405180910390f35b6101bc60048036038101906101b79190610c1c565b610758565b6040516101c99190610c49565b60405180910390f35b6101ec60048036038101906101e79190610b4e565b6108a3565b6040516101fa929190610b96565b60405180910390f35b6000600260003373ffffffffffffffffffffffffffffffffffffffff1673ffffffffffffffffffffffffffffffffffffffff168152602001908152602001600020600001805461025290610c9a565b905003610294576040517f08c379a000000000000000000000000000000000000000000000000000000000815260040161028b90610d17565b60405180910390fd5b600260003373ffffffffffffffffffffffffffffffffffffffff1673ffffffffffffffffffffffffffffffffffffffff16815260200190815260200160002060010160009054906101000a900460ff1615610324576040517f08c379a000000000000000000000000000000000000000000000000000000000815260040161031b90610d83565b60405180910390fd5b60048110610367576040517f08c379a000000000000000000000000000000000000000000000000000000000815260040161035e90610def565b60405180910390fd5b6001600260003373ffffffffffffffffffffffffffffffffffffffff1673ffffffffffffffffffffffffffffffffffffffff16815260200190815260200160002060010160006101000a81548160ff02191690831515021790555060016000828152602001908152602001600020600101600081548092919060010191905055506000808154809291906001019190505550803373ffffffffffffffffffffffffffffffffffffffff167f4d99b957a2bc29a30ebd96a7be8e68fe50a3c701db28a91436490b7d53870ca460405160405180910390a350565b60005481565b60016020528060005260406000206000915090508060000154908060010154905082565b60606000600483106104b1576040517f08c379a00000000000000000000000000000000000000000000000000000000081526004016104a890610def565b60405180910390fd5b6104d06001600085815260200190815260200160002060000154610758565b600160008581526020019081526020016000206001015491509150915091565b6060600080600260008573ffffffffffffffffffffffffffffffffffffffff1673ffffffffffffffffffffffffffffffffffffffff168152602001908152602001600020600001805461054290610c9a565b905003610584576040517f08c379a000000000000000000000000000000000000000000000000000000000815260040161057b90610d17565b60405180910390fd5b600260008473ffffffffffffffffffffffffffffffffffffffff1673ffffffffffffffffffffffffffffffffffffffff168152602001908152602001600020600001600260008573ffffffffffffffffffffffffffffffffffffffff1673ffffffffffffffffffffffffffffffffffffffff16815260200190815260200160002060010160009054906101000a900460ff1681805461062290610c9a565b80601f016020809104026020016040519081016040528092919081815260200182805461064e90610c9a565b801561069b5780601f106106705761010080835404028352916020019161069b565b820191906000526020600020905b81548152906001019060200180831161067e57829003601f168201915b5050505050915091509150915091565b7f000000000000000000000000000000000000000000000000000000000000000081565b6060600080600090506000805b600481101561072d57826001600083815260200190815260200160002060010154111561072057600160008281526020019081526020016000206001015492508091505b80806001019150506106dc565b5061074d6001600083815260200190815260200160002060000154610758565b829350935050509091565b606060005b60208160ff161080156107af5750600060f81b838260ff166020811061078657610785610e0f565b5b1a60f81b7effffffffffffffffffffffffffffffffffffffffffffffffffffffffffffff191614155b156107c75780806107bf90610e7a565b91505061075d565b60008160ff1667ffffffffffffffff8111156107e6576107e5610ea3565b5b6040519080825280601f01601f1916602001820160405280156108185781602001600182028036833780820191505090505b50905060005b8260ff168160ff16101561089857848160ff166020811061084257610841610e0f565b5b1a60f81b828260ff168151811061085c5761085b610e0f565b5b60200101907effffffffffffffffffffffffffffffffffffffffffffffffffffffffffffff1916908160001a905350808060010191505061081e565b508092505050919050565b60026020528060005260406000206000915090508060000180546108c690610c9a565b80601f01602080910402602001604051908101604052809291908181526020018280546108f290610c9a565b801561093f5780601f106109145761010080835404028352916020019161093f565b820191906000526020600020905b81548152906001019060200180831161092257829003601f168201915b5050505050908060010160009054906101000a900460ff16905082565b600080fd5b6000819050919050565b61097481610961565b811461097f57600080fd5b50565b6000813590506109918161096b565b92915050565b6000602082840312156109ad576109ac61095c565b5b60006109bb84828501610982565b91505092915050565b6109cd81610961565b82525050565b60006020820190506109e860008301846109c4565b92915050565b6000819050919050565b610a01816109ee565b82525050565b6000604082019050610a1c60008301856109f8565b610a2960208301846109c4565b9392505050565b600081519050919050565b600082825260208201905092915050565b60005b83811015610a6a578082015181840152602081019050610a4f565b60008484015250505050565b6000601f19601f8301169050919050565b6000610a9282610a30565b610a9c8185610a3b565b9350610aac818560208601610a4c565b610ab581610a76565b840191505092915050565b60006040820190508181036000830152610ada8185610a87565b9050610ae960208301846109c4565b9392505050565b600073ffffffffffffffffffffffffffffffffffffffff82169050919050565b6000610b1b82610af0565b9050919050565b610b2b81610b10565b8114610b3657600080fd5b50565b600081359050610b4881610b22565b92915050565b600060208284031215610b6457610b6361095c565b5b6000610b7284828501610b39565b91505092915050565b60008115159050919050565b610b9081610b7b565b82525050565b60006040820190508181036000830152610bb08185610a87565b9050610bbf6020830184610b87565b9392505050565b610bcf81610b10565b82525050565b6000602082019050610bea6000830184610bc6565b92915050565b610bf9816109ee565b8114610c0457600080fd5b50565b600081359050610c1681610bf0565b92915050565b600060208284031215610c3257610c3161095c565b5b6000610c4084828501610c07565b91505092915050565b60006020820190508181036000830152610c638184610a87565b905092915050565b7f4e487b7100000000000000000000000000000000000000000000000000000000600052602260045260246000fd5b60006002820490506001821680610cb257607f821691505b602082108103610cc557610cc4610c6b565b5b50919050565b7f4e6f742061207265676973746572656420766f74657200000000000000000000600082015250565b6000610d01601683610a3b565b9150610d0c82610ccb565b602082019050919050565b60006020820190508181036000830152610d3081610cf4565b9050919050565b7f416c726561647920766f74656400000000000000000000000000000000000000600082015250565b6000610d6d600d83610a3b565b9150610d7882610d37565b602082019050919050565b60006020820190508181036000830152610d9c81610d60565b9050919050565b7f496e76616c69642063616e646964617465000000000000000000000000000000600082015250565b6000610dd9601183610a3b565b9150610de482610da3565b602082019050919050565b60006020820190508181036000830152610e0881610dcc565b9050919050565b7f4e487b7100000000000000000000000000000000000000000000000000000000600052603260045260246000fd5b7f4e487b7100000000000000000000000000000000000000000000000000000000600052601160045260246000fd5b600060ff82169050919050565b6000610e8582610e6d565b915060ff8203610e9857610e97610e3e565b5b600182019050919050565b7f4e487b7100000000000000000000000000000000000000000000000000000000600052604160045260246000fdfea2646970667358221220d91bce1a5cf8d8b9e253df9a9b23a10f25fe12d45ba7b4c563cff909b3101df764736f6c634300081c0033",
  "linkReferences": {},
  "deployedLinkReferences": {}
}